:02000000722963
:08000800FF00030E8312031335
:10001000B4000A0EB500040EB6008A110A129A291D
:100020000130CD07CD0CFF30CD0500000000CD0B19
:1000300015280800C808031D1E280800F930000014
:1000400000000000000000000000FF3E031D1F280C
:100050000000000000000000000000000000C80BCD
:100060001E2808001F193228C90803194B281E082A
:10007000CA00CB01CA0DCB0DCA0DCB0DFC30CA0591
:1000800083161E0C8312CC00CC0CCC0E03304C0516
:10009000CA04CB084E281E08CA00CB0104301F0436
:1000A0009F004A08CC004B08CD0008004808831682
:1000B000920001308312490603194A0803196D287A
:1000C0000430490603194A080319702810304906FC
:1000D00003194A0803197328080004309200080025
:1000E00005309200080006309200080049089B0085
:1000F0000800831603138710831287100C309D00AD
:10010000080048088316920001308312490603193B
:100110004A08031998280430490603194A080319A4
:100120009B281030490603194A0803199E28080025
:10013000043092000800053092000800063092005A
:10014000080049089500080083160313071183125D
:1001500007110C30970008004908003A0319B42829
:10016000013A0319C528D7280130C7000030BA006A
:100170008530B900CB08031DC1280E3083169F00BF
:10018000D728053083169F00D7280230C7000030DB
:10019000CD008530B9004D08BA00CB08031DD42826
:1001A000043083169F00D728053083169F008313E1
:1001B00083123A188317390884000008C6004708DC
:1001C0004604CD0080004A08CD00CE01CD0DCE0DF5
:1001D000CD0DCE0DCD0DCE0DCD0DCE0DCD0DCE0D4B
:1001E000CD0DCE0DC0304D050138D0004908CF00EF
:1001F000CF0DCF0DCF0DF8304F0550049F004C08A8
:10020000CD00102004301F049F00080083138312C8
:1002100003133A1883173908840046088000073012
:1002200083169F0083129F0108004808C9007620AA
:100230000800FF3083120313C8000130C900CA014F
:100240005620792008004808C900A1200800FF3086
:1002500083120313C8000130C900CA018120A42001
:100260000800013083120313C9000330CA00CB0118
:100270002830CC00AC20C90132204C08C80006212F
:100280004808C900080083120313C9010330CA00DB
:10029000CB012830CC00AC20C90132204C08C8006A
:1002A00006214808C90008000730831603139F0081
:1002B000C030810027211921FF30C400C501312140
:1002C0004908C5004508C80015214408C800232175
:1002D000FF30C8001A20F530C8001A204321490811
:1002E000C4005F29D53083120313A000C430A100DD
:1002F000BB30A200DC30A300A401A501A601A70128
:10030000A801A901AA01AB01AC01AD01AE01AF0189
:10031000BE01BF01B701B801C001C101C201C301E3
:10032000B001B101B201B301BC01BD01BB018A1131
:100330000A12542983120313360E8400350E8A00E4
:0A034000340E8300FF0E7F0E09004B
:02400E007A3FF7
:00000001FF
