:02000000E628F0
:08000800FF00030E8312031335
:10001000B4000A0EB500040EB6008A110A120E29A9
:100020000730831603139F00C030810087018312BD
:100030008701C301C601C7010130C500C400C20069
:100040000130831605048500013083120505CC00BC
:10005000CD014C030319CD0A4D08C400C901C90ADA
:10006000C408031D4910C80145030319C80A4808FC
:100070004905031975280130C300C600C701FE30C9
:100080008316070587008312C30803194E28FE3024
:100090000705CC0001304C0487005128FE300705CD
:1000A0008700FD308316070587008312C6080319F1
:1000B0006028FD300705CC0002304C04870063281F
:1000C000FD3007058700FB30831607058700831284
:1000D000C70803197228FB300705CC0004304C0414
:1000E00087007528FB300705870004308316050458
:1000F0008500043083120505CC00CD0104304C028C
:100100000319CD0A4D08C200C208031D8E28C30181
:10011000C601C70183168701831287010230831647
:1001200005048500023083120505CC00CD010230A4
:100130004C020319CD0A4D08C500CB01CB0AC508F6
:10014000031D4B10CA0144030319CA0A4A084B0590
:10015000031920280130C300C6010130C700FE305A
:100160008316070587008312C3080319BE28FE30D3
:100170000705CC0001304C048700C128FE3007057C
:100180008700FD308316070587008312C608031910
:10019000D028FD300705CC0002304C048700D3285E
:1001A000FD3007058700FB308316070587008312A3
:1001B000C7080319E228FB300705CC0004304C04C3
:1001C00087002028FB30070587002028D5308312C0
:1001D0000313A000C430A100BB30A200DC30A30098
:1001E000A401A501A601A701A801A901AA01AB01CB
:1001F000AC01AD01AE01AF01BC01BD01B701B80159
:10020000BE01BF01C001C101B001B101B201B30122
:10021000BA01BB01B9018A110A1210288312031313
:10022000360E8400350E8A00340E8300FF0E7F0EDA
:020230000900C3
:02400E007A3FF7
:00000001FF
