:020000009B283B
:08000800FF00030E8312031335
:10001000B4000A0EB500040EB6008A110A12C328F5
:10002000C308031D14280800F93000000000000078
:10003000000000000000FF3E031D15280000000026
:1000400000000000000000000000C30B142808009E
:1000500043088316920001308312440603194508B1
:1000600003193F28043044060319450803194228A0
:1000700010304406031945080319452808000430C8
:100080009200080005309200080006309200080037
:100090004408950008008316031307118312071103
:1000A0000C30970008004308C40048200800FF30C7
:1000B00083120313C3000130C400C50128204B2064
:1000C00008000730831603139F00C030810083129D
:1000D000C2015720FE30831607058700FE308312C9
:1000E0000705C300013043048700FD308316070570
:1000F0008700FD30831207058700FB308316070554
:100100008700FB3083120705C300043043048700D7
:10011000FA304202031899284208C30053200530E0
:100120004207C200FF30C3001020F530C30010208A
:100130008828C2016A28D53083120313A000C43076
:10014000A100BB30A200DC30A300A401A501A601E0
:10015000A701A801A901AA01AB01AC01AD01AE0143
:10016000AF01BC01BD01B701B801BE01BF01C001B3
:10017000C101B001B101B201B301BA01BB01B901C2
:100180008A110A12612883120313360E8400350E79
:0C0190008A00340E8300FF0E7F0E090071
:02400E007A3FF7
:00000001FF
