:020000000829CD
:08000800FF00030E8312031335
:10001000B4000A0EB500040EB6008A110A12302987
:100020000130CC07CC0CFF30CC0500000000CC0B1D
:1000300015280800C708031D1E280800F930000015
:1000400000000000000000000000FF3E031D1F280C
:100050000000000000000000000000000000C70BCE
:100060001E2808001F193228C80803194B281E082B
:10007000C900CA01C90DCA0DC90DCA0DFC30C90598
:1000800083161E0C8312CB00CB0CCB0E03304B051A
:10009000C904CA084E281E08C900CA0104301F043A
:1000A0009F004908CB004A08CC0008004708831687
:1000B00092000130831248060319490803196D287C
:1000C00004304806031949080319702810304806FF
:1000D0000319490803197328080004309200080026
:1000E000053092000800063092000800480895008C
:1000F0000800831603130711831207110C309700B1
:1001000008004808003A031D95280130C600003059
:10011000BA008530B900CA08031D92280E30831634
:100120009F009528053083169F00831383123A1889
:100130008317390884000008C50046084504CC0030
:1001400080004908CC00CD01CC0DCD0DCC0DCD0DDE
:10015000CC0DCD0DCC0DCD0DCC0DCD0DCC0DCD0DD3
:10016000C0304C050138CF004808CE00CE0DCE0D72
:10017000CE0DF8304E054F049F004B08CC001020E8
:1001800004301F049F0008008313831203133A18DE
:1001900083173908840045088000073083169F00C4
:1001A00083129F0108004708C80076200800FF302E
:1001B00083120313C7000130C800C90156207920FB
:1001C000080083120313C8010330C900CA01283094
:1001D000CB008120C80132204B08C700C42047084B
:1001E000C80008000730831603139F00C030810049
:1001F000D720FF30C4004408C700D320FF30C70019
:100200001A20F530C7001A20E1204808C400FB2856
:10021000D53083120313A000C430A100BB30A2006C
:10022000DC30A300A401A501A601A701A801A90132
:10023000AA01AB01AC01AD01AE01AF01BE01BF012E
:10024000B701B801C001C101C201C301B001B101D0
:10025000B201B301BC01BD01BB018A110A12F2282F
:1002600083120313360E8400350E8A00340E830089
:06027000FF0E7F0E0900E5
:02400E007A3FF7
:00000001FF
