:02000000962840
:08000800FF00030E8312031335
:10001000B4000A0EB500040EB6008A110A12BE28FA
:10002000C308031D14280800F93000000000000078
:10003000000000000000FF3E031D15280000000026
:1000400000000000000000000000C30B142808009E
:10005000FA30C3001020FA30C3001020FA30C30079
:100060001020FA30C3001020C20B282808000730E7
:10007000831603139F00C0308100FE3083160705EE
:100080008700FE3083120705C2000130420487005A
:10009000FD30831607058700FD3083120705C20077
:1000A000023042048700FB30831607058700FB30CF
:1000B0008312070587000530C2002820FE30831612
:1000C00007058700FE308312070587000330C20052
:1000D0002820FE30831607058700FE3083120705AF
:1000E000C200013042048700FD30831607058700F7
:1000F000FD30831207058700FB3083160705870054
:10010000FB3083120705C20004304204870005302B
:10011000C2002820FE30831607058700FE308312B8
:10012000070587000330C20028203D28D530831200
:100130000313A000C430A100BB30A200DC30A30038
:10014000A401A501A601A701A801A901AA01AB016B
:10015000AC01AD01AE01AF01BC01BD01B701B801F9
:10016000BE01BF01C001C101B001B101B201B301C3
:10017000BA01BB01B9018A110A123728831203138D
:10018000360E8400350E8A00340E8300FF0E7F0E7B
:02019000090064
:02400E007A3FF7
:00000001FF
